{
  "contractName": "Kyc",
  "abi": [
    {
      "inputs": [],
      "stateMutability": "nonpayable",
      "type": "constructor"
    },
    {
      "anonymous": false,
      "inputs": [
        {
          "indexed": false,
          "internalType": "address",
          "name": "bankAddress",
          "type": "address"
        },
        {
          "indexed": false,
          "internalType": "string",
          "name": "message",
          "type": "string"
        }
      ],
      "name": "alreadyVoted",
      "type": "event"
    },
    {
      "inputs": [
        {
          "internalType": "uint256",
          "name": "",
          "type": "uint256"
        }
      ],
      "name": "bankList",
      "outputs": [
        {
          "internalType": "address",
          "name": "",
          "type": "address"
        }
      ],
      "stateMutability": "view",
      "type": "function"
    },
    {
      "inputs": [
        {
          "internalType": "address",
          "name": "",
          "type": "address"
        }
      ],
      "name": "banks",
      "outputs": [
        {
          "internalType": "bytes32",
          "name": "name",
          "type": "bytes32"
        },
        {
          "internalType": "address",
          "name": "bank",
          "type": "address"
        },
        {
          "internalType": "uint256",
          "name": "rating",
          "type": "uint256"
        },
        {
          "internalType": "uint8",
          "name": "kycCount",
          "type": "uint8"
        },
        {
          "internalType": "bytes32",
          "name": "regNumber",
          "type": "bytes32"
        }
      ],
      "stateMutability": "view",
      "type": "function"
    },
    {
      "inputs": [
        {
          "internalType": "bytes32",
          "name": "",
          "type": "bytes32"
        }
      ],
      "name": "customerKycReq",
      "outputs": [
        {
          "internalType": "bytes32",
          "name": "userName",
          "type": "bytes32"
        },
        {
          "internalType": "address",
          "name": "bank",
          "type": "address"
        },
        {
          "internalType": "bytes32",
          "name": "dataHash",
          "type": "bytes32"
        },
        {
          "internalType": "bool",
          "name": "isAllowed",
          "type": "bool"
        }
      ],
      "stateMutability": "view",
      "type": "function"
    },
    {
      "inputs": [
        {
          "internalType": "uint256",
          "name": "",
          "type": "uint256"
        }
      ],
      "name": "customerReqList",
      "outputs": [
        {
          "internalType": "bytes32",
          "name": "",
          "type": "bytes32"
        }
      ],
      "stateMutability": "view",
      "type": "function"
    },
    {
      "inputs": [
        {
          "internalType": "uint256",
          "name": "",
          "type": "uint256"
        }
      ],
      "name": "customerVerificationList",
      "outputs": [
        {
          "internalType": "bytes32",
          "name": "",
          "type": "bytes32"
        }
      ],
      "stateMutability": "view",
      "type": "function"
    },
    {
      "inputs": [
        {
          "internalType": "bytes32",
          "name": "",
          "type": "bytes32"
        }
      ],
      "name": "customers",
      "outputs": [
        {
          "internalType": "bytes32",
          "name": "userName",
          "type": "bytes32"
        },
        {
          "internalType": "bytes32",
          "name": "dataHash",
          "type": "bytes32"
        },
        {
          "internalType": "uint256",
          "name": "rating",
          "type": "uint256"
        },
        {
          "internalType": "uint8",
          "name": "upVotes",
          "type": "uint8"
        },
        {
          "internalType": "address",
          "name": "bank",
          "type": "address"
        }
      ],
      "stateMutability": "view",
      "type": "function"
    },
    {
      "inputs": [
        {
          "internalType": "uint256",
          "name": "",
          "type": "uint256"
        }
      ],
      "name": "finalCustomers",
      "outputs": [
        {
          "internalType": "bytes32",
          "name": "",
          "type": "bytes32"
        }
      ],
      "stateMutability": "view",
      "type": "function"
    },
    {
      "inputs": [
        {
          "internalType": "bytes32",
          "name": "",
          "type": "bytes32"
        }
      ],
      "name": "kycRequests",
      "outputs": [
        {
          "internalType": "bytes32",
          "name": "userName",
          "type": "bytes32"
        },
        {
          "internalType": "address",
          "name": "bank",
          "type": "address"
        },
        {
          "internalType": "bytes32",
          "name": "dataHash",
          "type": "bytes32"
        },
        {
          "internalType": "bool",
          "name": "isAllowed",
          "type": "bool"
        }
      ],
      "stateMutability": "view",
      "type": "function"
    },
    {
      "inputs": [
        {
          "internalType": "bytes32",
          "name": "customerName",
          "type": "bytes32"
        },
        {
          "internalType": "bytes32",
          "name": "customerDataHash",
          "type": "bytes32"
        }
      ],
      "name": "addKycRequest",
      "outputs": [
        {
          "internalType": "uint8",
          "name": "",
          "type": "uint8"
        }
      ],
      "stateMutability": "nonpayable",
      "type": "function"
    },
    {
      "inputs": [
        {
          "internalType": "bytes32",
          "name": "customerName",
          "type": "bytes32"
        },
        {
          "internalType": "bytes32",
          "name": "customerDataHash",
          "type": "bytes32"
        }
      ],
      "name": "addCustomer",
      "outputs": [
        {
          "internalType": "uint8",
          "name": "",
          "type": "uint8"
        }
      ],
      "stateMutability": "nonpayable",
      "type": "function"
    },
    {
      "inputs": [
        {
          "internalType": "bytes32",
          "name": "customerName",
          "type": "bytes32"
        },
        {
          "internalType": "bytes32",
          "name": "customerDataHash",
          "type": "bytes32"
        }
      ],
      "name": "removeKycRequest",
      "outputs": [
        {
          "internalType": "uint8",
          "name": "",
          "type": "uint8"
        }
      ],
      "stateMutability": "nonpayable",
      "type": "function"
    },
    {
      "inputs": [
        {
          "internalType": "bytes32",
          "name": "customerName",
          "type": "bytes32"
        }
      ],
      "name": "removeCustomer",
      "outputs": [
        {
          "internalType": "uint8",
          "name": "",
          "type": "uint8"
        }
      ],
      "stateMutability": "nonpayable",
      "type": "function"
    },
    {
      "inputs": [
        {
          "internalType": "bytes32",
          "name": "customerName",
          "type": "bytes32"
        },
        {
          "internalType": "bytes32",
          "name": "password",
          "type": "bytes32"
        }
      ],
      "name": "viewCustomer",
      "outputs": [
        {
          "internalType": "bytes32",
          "name": "",
          "type": "bytes32"
        }
      ],
      "stateMutability": "view",
      "type": "function"
    },
    {
      "inputs": [
        {
          "internalType": "bytes32",
          "name": "customerName",
          "type": "bytes32"
        }
      ],
      "name": "viewCustomerDetails",
      "outputs": [
        {
          "internalType": "bytes32",
          "name": "",
          "type": "bytes32"
        },
        {
          "internalType": "address",
          "name": "",
          "type": "address"
        },
        {
          "internalType": "bytes32",
          "name": "",
          "type": "bytes32"
        },
        {
          "internalType": "bool",
          "name": "",
          "type": "bool"
        }
      ],
      "stateMutability": "view",
      "type": "function"
    },
    {
      "inputs": [
        {
          "internalType": "bytes32",
          "name": "customerName",
          "type": "bytes32"
        }
      ],
      "name": "viewPedingCustomerDetails",
      "outputs": [
        {
          "internalType": "bytes32",
          "name": "",
          "type": "bytes32"
        },
        {
          "internalType": "bytes32",
          "name": "",
          "type": "bytes32"
        },
        {
          "internalType": "uint256",
          "name": "",
          "type": "uint256"
        },
        {
          "internalType": "uint8",
          "name": "",
          "type": "uint8"
        },
        {
          "internalType": "address",
          "name": "",
          "type": "address"
        },
        {
          "internalType": "bool",
          "name": "",
          "type": "bool"
        }
      ],
      "stateMutability": "view",
      "type": "function"
    },
    {
      "inputs": [
        {
          "internalType": "address",
          "name": "bankAddress",
          "type": "address"
        }
      ],
      "name": "getRequestedCustomers",
      "outputs": [
        {
          "internalType": "bytes32[]",
          "name": "",
          "type": "bytes32[]"
        }
      ],
      "stateMutability": "view",
      "type": "function"
    },
    {
      "inputs": [],
      "name": "getPendingCustomers",
      "outputs": [
        {
          "internalType": "bytes32[]",
          "name": "",
          "type": "bytes32[]"
        }
      ],
      "stateMutability": "view",
      "type": "function"
    },
    {
      "inputs": [],
      "name": "getVerifiedCustomers",
      "outputs": [
        {
          "internalType": "bytes32[]",
          "name": "",
          "type": "bytes32[]"
        }
      ],
      "stateMutability": "view",
      "type": "function"
    },
    {
      "inputs": [],
      "name": "getAllBanks",
      "outputs": [
        {
          "internalType": "address[]",
          "name": "",
          "type": "address[]"
        }
      ],
      "stateMutability": "view",
      "type": "function"
    },
    {
      "inputs": [
        {
          "internalType": "bytes32",
          "name": "customerName",
          "type": "bytes32"
        }
      ],
      "name": "upVoteCustomer",
      "outputs": [
        {
          "internalType": "uint8",
          "name": "",
          "type": "uint8"
        }
      ],
      "stateMutability": "nonpayable",
      "type": "function"
    },
    {
      "inputs": [
        {
          "internalType": "bytes32",
          "name": "customerName",
          "type": "bytes32"
        },
        {
          "internalType": "bytes32",
          "name": "password",
          "type": "bytes32"
        },
        {
          "internalType": "bytes32",
          "name": "dataHash",
          "type": "bytes32"
        }
      ],
      "name": "modifyCustomerData",
      "outputs": [
        {
          "internalType": "uint8",
          "name": "",
          "type": "uint8"
        }
      ],
      "stateMutability": "nonpayable",
      "type": "function"
    },
    {
      "inputs": [
        {
          "internalType": "address",
          "name": "bankAddress",
          "type": "address"
        }
      ],
      "name": "getBankRequests",
      "outputs": [
        {
          "internalType": "bytes32[]",
          "name": "",
          "type": "bytes32[]"
        }
      ],
      "stateMutability": "view",
      "type": "function"
    },
    {
      "inputs": [
        {
          "internalType": "address",
          "name": "bankAddress",
          "type": "address"
        }
      ],
      "name": "upVoteBank",
      "outputs": [
        {
          "internalType": "uint8",
          "name": "",
          "type": "uint8"
        }
      ],
      "stateMutability": "nonpayable",
      "type": "function"
    },
    {
      "inputs": [
        {
          "internalType": "bytes32",
          "name": "customerName",
          "type": "bytes32"
        }
      ],
      "name": "getCustomerRating",
      "outputs": [
        {
          "internalType": "uint256",
          "name": "",
          "type": "uint256"
        }
      ],
      "stateMutability": "view",
      "type": "function"
    },
    {
      "inputs": [
        {
          "internalType": "address",
          "name": "bankAddress",
          "type": "address"
        }
      ],
      "name": "getBankRating",
      "outputs": [
        {
          "internalType": "uint256",
          "name": "",
          "type": "uint256"
        }
      ],
      "stateMutability": "view",
      "type": "function"
    },
    {
      "inputs": [
        {
          "internalType": "bytes32",
          "name": "customerName",
          "type": "bytes32"
        }
      ],
      "name": "lastUpdatedBy",
      "outputs": [
        {
          "internalType": "address",
          "name": "",
          "type": "address"
        }
      ],
      "stateMutability": "view",
      "type": "function"
    },
    {
      "inputs": [
        {
          "internalType": "bytes32",
          "name": "customerName",
          "type": "bytes32"
        },
        {
          "internalType": "bytes32",
          "name": "password",
          "type": "bytes32"
        }
      ],
      "name": "setPassword",
      "outputs": [
        {
          "internalType": "bool",
          "name": "",
          "type": "bool"
        }
      ],
      "stateMutability": "nonpayable",
      "type": "function"
    },
    {
      "inputs": [
        {
          "internalType": "address",
          "name": "bankAddress",
          "type": "address"
        }
      ],
      "name": "getBankDetails",
      "outputs": [
        {
          "internalType": "bytes32",
          "name": "",
          "type": "bytes32"
        },
        {
          "internalType": "address",
          "name": "",
          "type": "address"
        },
        {
          "internalType": "uint256",
          "name": "",
          "type": "uint256"
        },
        {
          "internalType": "uint8",
          "name": "",
          "type": "uint8"
        },
        {
          "internalType": "bytes32",
          "name": "",
          "type": "bytes32"
        }
      ],
      "stateMutability": "view",
      "type": "function"
    },
    {
      "inputs": [
        {
          "internalType": "bytes32",
          "name": "bankName",
          "type": "bytes32"
        },
        {
          "internalType": "address",
          "name": "bankAddress",
          "type": "address"
        },
        {
          "internalType": "bytes32",
          "name": "regNumber",
          "type": "bytes32"
        }
      ],
      "name": "addBank",
      "outputs": [
        {
          "internalType": "bool",
          "name": "",
          "type": "bool"
        }
      ],
      "stateMutability": "nonpayable",
      "type": "function"
    },
    {
      "inputs": [
        {
          "internalType": "address",
          "name": "bankAddress",
          "type": "address"
        }
      ],
      "name": "removeBank",
      "outputs": [
        {
          "internalType": "bool",
          "name": "",
          "type": "bool"
        }
      ],
      "stateMutability": "nonpayable",
      "type": "function"
    }
  ],
  "bytecode": "0x608060405234801561001057600080fd5b5033600c60006101000a81548173ffffffffffffffffffffffffffffffffffffffff021916908373ffffffffffffffffffffffffffffffffffffffff1602179055506032600d81905550615d78806200006a6000396000f3fe608060405234801561001057600080fd5b50600436106101da5760003560e01c80638a7221cb11610104578063b8144a72116100a2578063d342959b11610071578063d342959b1461069c578063d4b40e54146106cf578063e12a157b146106ff578063ea8411981461072f576101da565b8063b8144a72146105dc578063c9091acc1461060c578063cba49c211461063c578063ccb6b0d21461066c576101da565b8063951c8a07116100de578063951c8a07146105295780639649650c146105475780639da0df9114610577578063b1d4e355146105ac576101da565b80638a7221cb1461049957806392a67c59146104c9578063933724d6146104f9576101da565b806356fb2ba71161017c578063628e09ad1161014b578063628e09ad146103d257806380c3b8c2146104025780638699bc40146104365780638730ef9714610466576101da565b806356fb2ba71461031257806358fc3c3c146103425780635cc4a477146103725780636272c418146103a2576101da565b80632e69f18f116101b85780632e69f18f14610273578063306bca81146102915780634491bf5e146102c45780634ab867dc146102f4576101da565b806306aecb8c146101df578063130d70cd1461020f57806315101e021461023f575b600080fd5b6101f960048036038101906101f49190614bf2565b610763565b6040516102069190614c60565b60405180910390f35b61022960048036038101906102249190614c7b565b610ba6565b6040516102369190614cc4565b60405180910390f35b61025960048036038101906102549190614cdf565b611002565b60405161026a959493929190614d43565b60405180910390f35b61027b611269565b6040516102889190614e54565b60405180910390f35b6102ab60048036038101906102a69190614c7b565b6112c1565b6040516102bb9493929190614e76565b60405180910390f35b6102de60048036038101906102d99190614c7b565b61144b565b6040516102eb9190614cc4565b60405180910390f35b6102fc611614565b6040516103099190614e54565b60405180910390f35b61032c60048036038101906103279190614ebb565b6117ca565b6040516103399190614cc4565b60405180910390f35b61035c60048036038101906103579190614ebb565b611a5c565b6040516103699190614c60565b60405180910390f35b61038c60048036038101906103879190614ebb565b611b50565b6040516103999190614cc4565b60405180910390f35b6103bc60048036038101906103b79190614c7b565b611f5e565b6040516103c99190614efb565b60405180910390f35b6103ec60048036038101906103e79190614cdf565b61206d565b6040516103f99190614e54565b60405180910390f35b61041c60048036038101906104179190614cdf565b612299565b60405161042d959493929190614d43565b60405180910390f35b610450600480360381019061044b9190614f42565b6122fc565b60405161045d9190614f6f565b60405180910390f35b610480600480360381019061047b9190614c7b565b612320565b6040516104909493929190614e76565b60405180910390f35b6104b360048036038101906104ae9190614ebb565b61237d565b6040516104c09190614f6f565b60405180910390f35b6104e360048036038101906104de9190614f8a565b6124c7565b6040516104f09190614cc4565b60405180910390f35b610513600480360381019061050e9190614f42565b612795565b6040516105209190614f6f565b60405180910390f35b6105316127b9565b60405161053e919061509b565b60405180910390f35b610561600480360381019061055c9190614cdf565b612847565b60405161056e9190614c60565b60405180910390f35b610591600480360381019061058c9190614c7b565b612ae6565b6040516105a3969594939291906150bd565b60405180910390f35b6105c660048036038101906105c19190614c7b565b612d3f565b6040516105d3919061511e565b60405180910390f35b6105f660048036038101906105f19190614cdf565b612e2e565b604051610603919061511e565b60405180910390f35b61062660048036038101906106219190614ebb565b612f4a565b6040516106339190614cc4565b60405180910390f35b61065660048036038101906106519190614f42565b61338b565b6040516106639190614efb565b60405180910390f35b61068660048036038101906106819190614cdf565b6133ca565b6040516106939190614cc4565b60405180910390f35b6106b660048036038101906106b19190614c7b565b613b9f565b6040516106c69493929190614e76565b60405180910390f35b6106e960048036038101906106e49190614f42565b613bfc565b6040516106f69190614f6f565b60405180910390f35b61071960048036038101906107149190614cdf565b613c20565b6040516107269190614e54565b60405180910390f35b61074960048036038101906107449190614c7b565b613e62565b60405161075a959493929190615139565b60405180910390f35b60003373ffffffffffffffffffffffffffffffffffffffff16600c60009054906101000a900473ffffffffffffffffffffffffffffffffffffffff1673ffffffffffffffffffffffffffffffffffffffff16146107f5576040517f08c379a00000000000000000000000000000000000000000000000000000000081526004016107ec9061520f565b60405180910390fd5b8273ffffffffffffffffffffffffffffffffffffffff16600160008573ffffffffffffffffffffffffffffffffffffffff1673ffffffffffffffffffffffffffffffffffffffff16815260200190815260200160002060010160009054906101000a900473ffffffffffffffffffffffffffffffffffffffff1673ffffffffffffffffffffffffffffffffffffffff1614156108c6576040517f08c379a00000000000000000000000000000000000000000000000000000000081526004016108bd906152a1565b60405180910390fd5b83600160008573ffffffffffffffffffffffffffffffffffffffff1673ffffffffffffffffffffffffffffffffffffffff1681526020019081526020016000206000018190555082600160008573ffffffffffffffffffffffffffffffffffffffff1673ffffffffffffffffffffffffffffffffffffffff16815260200190815260200160002060010160006101000a81548173ffffffffffffffffffffffffffffffffffffffff021916908373ffffffffffffffffffffffffffffffffffffffff1602179055506000600160008573ffffffffffffffffffffffffffffffffffffffff1673ffffffffffffffffffffffffffffffffffffffff168152602001908152602001600020600201819055506000600160008573ffffffffffffffffffffffffffffffffffffffff1673ffffffffffffffffffffffffffffffffffffffff16815260200190815260200160002060030160006101000a81548160ff021916908360ff16021790555081600160008573ffffffffffffffffffffffffffffffffffffffff1673ffffffffffffffffffffffffffffffffffffffff168152602001908152602001600020600401819055506007839080600181540180825580915050600190039060005260206000200160009091909190916101000a81548173ffffffffffffffffffffffffffffffffffffffff021916908373ffffffffffffffffffffffffffffffffffffffff160217905550600560008473ffffffffffffffffffffffffffffffffffffffff1673ffffffffffffffffffffffffffffffffffffffff168152602001908152602001600020600181600181540180825580915050039060005260206000200160009054906101000a905050600460008473ffffffffffffffffffffffffffffffffffffffff1673ffffffffffffffffffffffffffffffffffffffff168152602001908152602001600020600181600181540180825580915050039060005260206000205050600190509392505050565b60003373ffffffffffffffffffffffffffffffffffffffff16600160003373ffffffffffffffffffffffffffffffffffffffff1673ffffffffffffffffffffffffffffffffffffffff16815260200190815260200160002060010160009054906101000a900473ffffffffffffffffffffffffffffffffffffffff1673ffffffffffffffffffffffffffffffffffffffff1614610c78576040517f08c379a0000000000000000000000000000000000000000000000000000000008152600401610c6f90615333565b60405180910390fd5b816000808481526020019081526020016000206000015414610ccf576040517f08c379a0000000000000000000000000000000000000000000000000000000008152600401610cc69061539f565b60405180910390fd5b3373ffffffffffffffffffffffffffffffffffffffff16600160003373ffffffffffffffffffffffffffffffffffffffff1673ffffffffffffffffffffffffffffffffffffffff16815260200190815260200160002060010160009054906101000a900473ffffffffffffffffffffffffffffffffffffffff1673ffffffffffffffffffffffffffffffffffffffff1614610d9f576040517f08c379a0000000000000000000000000000000000000000000000000000000008152600401610d9690615333565b60405180910390fd5b60005b600460003373ffffffffffffffffffffffffffffffffffffffff1673ffffffffffffffffffffffffffffffffffffffff16815260200190815260200160002080549050811015610ea35782600460003373ffffffffffffffffffffffffffffffffffffffff1673ffffffffffffffffffffffffffffffffffffffff1681526020019081526020016000208281548110610e3e57610e3d6153bf565b5b90600052602060002001541415610e90577fb6d4c80e432e3b2f0a7bdebcf6040197f0bd0572e7bb324e126521fa5966657c33604051610e7e9190615460565b60405180910390a16000915050610ffd565b8080610e9b906154bd565b915050610da2565b50600460003373ffffffffffffffffffffffffffffffffffffffff1673ffffffffffffffffffffffffffffffffffffffff168152602001908152602001600020829080600181540180825580915050600190039060005260206000200160009091909190915055600160008084815260200190815260200160002060030160008282829054906101000a900460ff16610f3c9190615506565b92506101000a81548160ff021916908360ff160217905550600780549050606460008085815260200190815260200160002060030160009054906101000a900460ff16610f89919061553d565b60ff16610f9691906155a7565b60008084815260200190815260200160002060020181905550600d54600080848152602001908152602001600020600201541115610ff85760088290806001815401808255809150506001900390600052602060002001600090919091909150555b600190505b919050565b60008060008060008573ffffffffffffffffffffffffffffffffffffffff16600160008873ffffffffffffffffffffffffffffffffffffffff1673ffffffffffffffffffffffffffffffffffffffff16815260200190815260200160002060010160009054906101000a900473ffffffffffffffffffffffffffffffffffffffff1673ffffffffffffffffffffffffffffffffffffffff16146110da576040517f08c379a00000000000000000000000000000000000000000000000000000000081526004016110d190615624565b60405180910390fd5b600160008773ffffffffffffffffffffffffffffffffffffffff1673ffffffffffffffffffffffffffffffffffffffff16815260200190815260200160002060000154600160008873ffffffffffffffffffffffffffffffffffffffff1673ffffffffffffffffffffffffffffffffffffffff16815260200190815260200160002060010160009054906101000a900473ffffffffffffffffffffffffffffffffffffffff16600160008973ffffffffffffffffffffffffffffffffffffffff1673ffffffffffffffffffffffffffffffffffffffff16815260200190815260200160002060020154600160008a73ffffffffffffffffffffffffffffffffffffffff1673ffffffffffffffffffffffffffffffffffffffff16815260200190815260200160002060030160009054906101000a900460ff16600160008b73ffffffffffffffffffffffffffffffffffffffff1673ffffffffffffffffffffffffffffffffffffffff168152602001908152602001600020600401549450945094509450945091939590929450565b606060088054806020026020016040519081016040528092919081815260200182805480156112b757602002820191906000526020600020905b8154815260200190600101908083116112a3575b5050505050905090565b6000806000803373ffffffffffffffffffffffffffffffffffffffff16600160003373ffffffffffffffffffffffffffffffffffffffff1673ffffffffffffffffffffffffffffffffffffffff16815260200190815260200160002060010160009054906101000a900473ffffffffffffffffffffffffffffffffffffffff1673ffffffffffffffffffffffffffffffffffffffff1614611397576040517f08c379a000000000000000000000000000000000000000000000000000000000815260040161138e90615333565b60405180910390fd5b60006003600087815260200190815260200160002060020154905060026000828152602001908152602001600020600001546002600083815260200190815260200160002060010160009054906101000a900473ffffffffffffffffffffffffffffffffffffffff1660026000848152602001908152602001600020600201546002600085815260200190815260200160002060030160009054906101000a900460ff169450945094509450509193509193565b60003373ffffffffffffffffffffffffffffffffffffffff16600160003373ffffffffffffffffffffffffffffffffffffffff1673ffffffffffffffffffffffffffffffffffffffff16815260200190815260200160002060010160009054906101000a900473ffffffffffffffffffffffffffffffffffffffff1673ffffffffffffffffffffffffffffffffffffffff161461151d576040517f08c379a000000000000000000000000000000000000000000000000000000000815260040161151490615333565b60405180910390fd5b816000808481526020019081526020016000206000015414611574576040517f08c379a000000000000000000000000000000000000000000000000000000000815260040161156b90615690565b60405180910390fd5b600080838152602001908152602001600020600080820160009055600182016000905560028201600090556003820160006101000a81549060ff02191690556003820160016101000a81549073ffffffffffffffffffffffffffffffffffffffff0219169055505060066000838152602001908152602001600020600090556115fc82613ec5565b1561160b5761160a82613f28565b5b60019050919050565b60603373ffffffffffffffffffffffffffffffffffffffff16600160003373ffffffffffffffffffffffffffffffffffffffff1673ffffffffffffffffffffffffffffffffffffffff16815260200190815260200160002060010160009054906101000a900473ffffffffffffffffffffffffffffffffffffffff1673ffffffffffffffffffffffffffffffffffffffff16146116e6576040517f08c379a00000000000000000000000000000000000000000000000000000000081526004016116dd90615333565b60405180910390fd5b6000600b8054905067ffffffffffffffff811115611707576117066156b0565b5b6040519080825280602002602001820160405280156117355781602001602082028036833780820191505090505b5090506000805b600b805490508110156117c157600080600b83815481106117605761175f6153bf565b5b9060005260206000200154815260200190815260200160002060000154838360ff1681518110611793576117926153bf565b5b6020026020010181815250506001826117ac9190615506565b915080806117b9906154bd565b91505061173c565b50819250505090565b60003373ffffffffffffffffffffffffffffffffffffffff16600160003373ffffffffffffffffffffffffffffffffffffffff1673ffffffffffffffffffffffffffffffffffffffff16815260200190815260200160002060010160009054906101000a900473ffffffffffffffffffffffffffffffffffffffff1673ffffffffffffffffffffffffffffffffffffffff161461189c576040517f08c379a000000000000000000000000000000000000000000000000000000000815260040161189390615333565b60405180910390fd5b826002600084815260200190815260200160002060000154146118f4576040517f08c379a00000000000000000000000000000000000000000000000000000000081526004016118eb90615751565b60405180910390fd5b600260008381526020019081526020016000206000808201600090556001820160006101000a81549073ffffffffffffffffffffffffffffffffffffffff021916905560028201600090556003820160006101000a81549060ff0219169055505060005b600980549050811015611a5057826009828154811061197a576119796153bf565b5b90600052602060002001541415611a3d57600060018261199a9190615771565b90505b600980549050811015611a0a57600981815481106119be576119bd6153bf565b5b906000526020600020015460096001836119d891906157c7565b815481106119e9576119e86153bf565b5b90600052602060002001819055508080611a02906154bd565b91505061199d565b506009805480611a1d57611a1c6157fb565b5b600190038181906000526020600020016000905590556001915050611a56565b8080611a48906154bd565b915050611958565b50600190505b92915050565b60003373ffffffffffffffffffffffffffffffffffffffff16600160003373ffffffffffffffffffffffffffffffffffffffff1673ffffffffffffffffffffffffffffffffffffffff16815260200190815260200160002060010160009054906101000a900473ffffffffffffffffffffffffffffffffffffffff1673ffffffffffffffffffffffffffffffffffffffff1614611b2e576040517f08c379a0000000000000000000000000000000000000000000000000000000008152600401611b2590615333565b60405180910390fd5b8160066000858152602001908152602001600020819055506001905092915050565b60003373ffffffffffffffffffffffffffffffffffffffff16600160003373ffffffffffffffffffffffffffffffffffffffff1673ffffffffffffffffffffffffffffffffffffffff16815260200190815260200160002060010160009054906101000a900473ffffffffffffffffffffffffffffffffffffffff1673ffffffffffffffffffffffffffffffffffffffff1614611c22576040517f08c379a0000000000000000000000000000000000000000000000000000000008152600401611c1990615333565b60405180910390fd5b600073ffffffffffffffffffffffffffffffffffffffff166002600084815260200190815260200160002060010160009054906101000a900473ffffffffffffffffffffffffffffffffffffffff1673ffffffffffffffffffffffffffffffffffffffff1614611cc7576040517f08c379a0000000000000000000000000000000000000000000000000000000008152600401611cbe9061589c565b60405180910390fd5b826002600084815260200190815260200160002060000181905550816002600084815260200190815260200160002060020181905550336002600084815260200190815260200160002060010160006101000a81548173ffffffffffffffffffffffffffffffffffffffff021916908373ffffffffffffffffffffffffffffffffffffffff160217905550600d54600160003373ffffffffffffffffffffffffffffffffffffffff1673ffffffffffffffffffffffffffffffffffffffff1681526020019081526020016000206002015411611dd15760006002600084815260200190815260200160002060030160006101000a81548160ff021916908315150217905550611e01565b60016002600084815260200190815260200160002060030160006101000a81548160ff0219169083151502179055505b6009829080600181540180825580915050600190039060005260206000200160009091909190915055600a83908060018154018082558091505060019003906000526020600020016000909190919091505560018060003373ffffffffffffffffffffffffffffffffffffffff1673ffffffffffffffffffffffffffffffffffffffff16815260200190815260200160002060030160008282829054906101000a900460ff16611eb19190615506565b92506101000a81548160ff021916908360ff160217905550826003600085815260200190815260200160002060000181905550816003600085815260200190815260200160002060020181905550336003600085815260200190815260200160002060010160006101000a81548173ffffffffffffffffffffffffffffffffffffffff021916908373ffffffffffffffffffffffffffffffffffffffff1602179055506001905092915050565b60003373ffffffffffffffffffffffffffffffffffffffff16600160003373ffffffffffffffffffffffffffffffffffffffff1673ffffffffffffffffffffffffffffffffffffffff16815260200190815260200160002060010160009054906101000a900473ffffffffffffffffffffffffffffffffffffffff1673ffffffffffffffffffffffffffffffffffffffff1614612030576040517f08c379a000000000000000000000000000000000000000000000000000000000815260040161202790615333565b60405180910390fd5b60008083815260200190815260200160002060030160019054906101000a900473ffffffffffffffffffffffffffffffffffffffff169050919050565b60603373ffffffffffffffffffffffffffffffffffffffff16600160003373ffffffffffffffffffffffffffffffffffffffff1673ffffffffffffffffffffffffffffffffffffffff16815260200190815260200160002060010160009054906101000a900473ffffffffffffffffffffffffffffffffffffffff1673ffffffffffffffffffffffffffffffffffffffff161461213f576040517f08c379a000000000000000000000000000000000000000000000000000000000815260040161213690615333565b60405180910390fd5b600060098054905067ffffffffffffffff8111156121605761215f6156b0565b5b60405190808252806020026020018201604052801561218e5781602001602082028036833780820191505090505b5090506000805b60098054905081101561228e578473ffffffffffffffffffffffffffffffffffffffff1660026000600984815481106121d1576121d06153bf565b5b9060005260206000200154815260200190815260200160002060010160009054906101000a900473ffffffffffffffffffffffffffffffffffffffff1673ffffffffffffffffffffffffffffffffffffffff16141561227b576009818154811061223e5761223d6153bf565b5b9060005260206000200154838360ff168151811061225f5761225e6153bf565b5b6020026020010181815250506001826122789190615506565b91505b8080612286906154bd565b915050612195565b508192505050919050565b60016020528060005260406000206000915090508060000154908060010160009054906101000a900473ffffffffffffffffffffffffffffffffffffffff16908060020154908060030160009054906101000a900460ff16908060040154905085565b6008818154811061230c57600080fd5b906000526020600020016000915090505481565b60036020528060005260406000206000915090508060000154908060010160009054906101000a900473ffffffffffffffffffffffffffffffffffffffff16908060020154908060030160009054906101000a900460ff16905084565b60003373ffffffffffffffffffffffffffffffffffffffff16600160003373ffffffffffffffffffffffffffffffffffffffff1673ffffffffffffffffffffffffffffffffffffffff16815260200190815260200160002060010160009054906101000a900473ffffffffffffffffffffffffffffffffffffffff1673ffffffffffffffffffffffffffffffffffffffff161461244f576040517f08c379a000000000000000000000000000000000000000000000000000000000815260040161244690615333565b60405180910390fd5b828280600660008481526020019081526020016000205414156124a7576040517f08c379a000000000000000000000000000000000000000000000000000000000815260040161249e90615908565b60405180910390fd5b600080868152602001908152602001600020600101549250505092915050565b60003373ffffffffffffffffffffffffffffffffffffffff16600160003373ffffffffffffffffffffffffffffffffffffffff1673ffffffffffffffffffffffffffffffffffffffff16815260200190815260200160002060010160009054906101000a900473ffffffffffffffffffffffffffffffffffffffff1673ffffffffffffffffffffffffffffffffffffffff1614612599576040517f08c379a000000000000000000000000000000000000000000000000000000000815260040161259090615333565b60405180910390fd5b838380600660008481526020019081526020016000205414156125f1576040517f08c379a00000000000000000000000000000000000000000000000000000000081526004016125e890615908565b60405180910390fd5b856000808881526020019081526020016000206000015414612648576040517f08c379a000000000000000000000000000000000000000000000000000000000815260040161263f90615690565b60405180910390fd5b6000612654878761237d565b9050806000808981526020019081526020016000206001015414156126ae576040517f08c379a00000000000000000000000000000000000000000000000000000000081526004016126a590615974565b60405180910390fd5b84600080898152602001908152602001600020600101819055503360008089815260200190815260200160002060030160016101000a81548173ffffffffffffffffffffffffffffffffffffffff021916908373ffffffffffffffffffffffffffffffffffffffff160217905550600080600089815260200190815260200160002060020181905550600080600089815260200190815260200160002060030160006101000a81548160ff021916908360ff16021790555061276f87613ec5565b1561277e5761277d87613f28565b5b61278787614027565b600193505050509392505050565b600a81815481106127a557600080fd5b906000526020600020016000915090505481565b6060600780548060200260200160405190810160405280929190818152602001828054801561283d57602002820191906000526020600020905b8160009054906101000a900473ffffffffffffffffffffffffffffffffffffffff1673ffffffffffffffffffffffffffffffffffffffff16815260200190600101908083116127f3575b5050505050905090565b60003373ffffffffffffffffffffffffffffffffffffffff16600c60009054906101000a900473ffffffffffffffffffffffffffffffffffffffff1673ffffffffffffffffffffffffffffffffffffffff16146128d9576040517f08c379a00000000000000000000000000000000000000000000000000000000081526004016128d09061520f565b60405180910390fd5b8173ffffffffffffffffffffffffffffffffffffffff16600160008473ffffffffffffffffffffffffffffffffffffffff1673ffffffffffffffffffffffffffffffffffffffff16815260200190815260200160002060010160009054906101000a900473ffffffffffffffffffffffffffffffffffffffff1673ffffffffffffffffffffffffffffffffffffffff16146129a9576040517f08c379a00000000000000000000000000000000000000000000000000000000081526004016129a090615624565b60405180910390fd5b6129b282614423565b600160008373ffffffffffffffffffffffffffffffffffffffff1673ffffffffffffffffffffffffffffffffffffffff1681526020019081526020016000206000808201600090556001820160006101000a81549073ffffffffffffffffffffffffffffffffffffffff021916905560028201600090556003820160006101000a81549060ff021916905560048201600090555050600560008373ffffffffffffffffffffffffffffffffffffffff1673ffffffffffffffffffffffffffffffffffffffff1681526020019081526020016000206000612a929190614add565b600460008373ffffffffffffffffffffffffffffffffffffffff1673ffffffffffffffffffffffffffffffffffffffff1681526020019081526020016000206000612add9190614afe565b60019050919050565b6000806000806000803373ffffffffffffffffffffffffffffffffffffffff16600160003373ffffffffffffffffffffffffffffffffffffffff1673ffffffffffffffffffffffffffffffffffffffff16815260200190815260200160002060010160009054906101000a900473ffffffffffffffffffffffffffffffffffffffff1673ffffffffffffffffffffffffffffffffffffffff1614612bbf576040517f08c379a0000000000000000000000000000000000000000000000000000000008152600401612bb690615333565b60405180910390fd5b600d54600080898152602001908152602001600020600201541115612c8c5760008088815260200190815260200160002060000154600080898152602001908152602001600020600101546000808a8152602001908152602001600020600201546000808b815260200190815260200160002060030160009054906101000a900460ff166000808c815260200190815260200160002060030160019054906101000a900473ffffffffffffffffffffffffffffffffffffffff166001955095509550955095509550612d36565b60008088815260200190815260200160002060000154600080898152602001908152602001600020600101546000808a8152602001908152602001600020600201546000808b815260200190815260200160002060030160009054906101000a900460ff166000808c815260200190815260200160002060030160019054906101000a900473ffffffffffffffffffffffffffffffffffffffff1660009550955095509550955095505b91939550919395565b60003373ffffffffffffffffffffffffffffffffffffffff16600160003373ffffffffffffffffffffffffffffffffffffffff1673ffffffffffffffffffffffffffffffffffffffff16815260200190815260200160002060010160009054906101000a900473ffffffffffffffffffffffffffffffffffffffff1673ffffffffffffffffffffffffffffffffffffffff1614612e11576040517f08c379a0000000000000000000000000000000000000000000000000000000008152600401612e0890615333565b60405180910390fd5b600080838152602001908152602001600020600201549050919050565b60003373ffffffffffffffffffffffffffffffffffffffff16600160003373ffffffffffffffffffffffffffffffffffffffff1673ffffffffffffffffffffffffffffffffffffffff16815260200190815260200160002060010160009054906101000a900473ffffffffffffffffffffffffffffffffffffffff1673ffffffffffffffffffffffffffffffffffffffff1614612f00576040517f08c379a0000000000000000000000000000000000000000000000000000000008152600401612ef790615333565b60405180910390fd5b600160008373ffffffffffffffffffffffffffffffffffffffff1673ffffffffffffffffffffffffffffffffffffffff168152602001908152602001600020600201549050919050565b60003373ffffffffffffffffffffffffffffffffffffffff16600160003373ffffffffffffffffffffffffffffffffffffffff1673ffffffffffffffffffffffffffffffffffffffff16815260200190815260200160002060010160009054906101000a900473ffffffffffffffffffffffffffffffffffffffff1673ffffffffffffffffffffffffffffffffffffffff161461301c576040517f08c379a000000000000000000000000000000000000000000000000000000000815260040161301390615333565b60405180910390fd5b600073ffffffffffffffffffffffffffffffffffffffff1660008085815260200190815260200160002060030160019054906101000a900473ffffffffffffffffffffffffffffffffffffffff1673ffffffffffffffffffffffffffffffffffffffff16146130c0576040517f08c379a00000000000000000000000000000000000000000000000000000000081526004016130b790615a2c565b60405180910390fd5b82600260008481526020019081526020016000206000015414613118576040517f08c379a000000000000000000000000000000000000000000000000000000000815260040161310f90615abe565b60405180910390fd5b600115156002600084815260200190815260200160002060030160009054906101000a900460ff16151514613182576040517f08c379a000000000000000000000000000000000000000000000000000000000815260040161317990615b2a565b60405180910390fd5b826000808581526020019081526020016000206000018190555081600080858152602001908152602001600020600101819055503360008085815260200190815260200160002060030160016101000a81548173ffffffffffffffffffffffffffffffffffffffff021916908373ffffffffffffffffffffffffffffffffffffffff160217905550600460003373ffffffffffffffffffffffffffffffffffffffff1673ffffffffffffffffffffffffffffffffffffffff168152602001908152602001600020839080600181540180825580915050600190039060005260206000200160009091909190915055600160008085815260200190815260200160002060030160008282829054906101000a900460ff166132a29190615506565b92506101000a81548160ff021916908360ff160217905550600780549050606460008086815260200190815260200160002060030160009054906101000a900460ff166132ef919061553d565b60ff166132fc91906155a7565b60008085815260200190815260200160002060020181905550600b83908060018154018082558091505060019003906000526020600020016000909190919091505561334883836117ca565b507f300000000000000000000000000000000000000000000000000000000000000060066000858152602001908152602001600020819055506001905092915050565b6007818154811061339b57600080fd5b906000526020600020016000915054906101000a900473ffffffffffffffffffffffffffffffffffffffff1681565b60003373ffffffffffffffffffffffffffffffffffffffff16600160003373ffffffffffffffffffffffffffffffffffffffff1673ffffffffffffffffffffffffffffffffffffffff16815260200190815260200160002060010160009054906101000a900473ffffffffffffffffffffffffffffffffffffffff1673ffffffffffffffffffffffffffffffffffffffff161461349c576040517f08c379a000000000000000000000000000000000000000000000000000000000815260040161349390615333565b60405180910390fd5b8173ffffffffffffffffffffffffffffffffffffffff16600160008473ffffffffffffffffffffffffffffffffffffffff1673ffffffffffffffffffffffffffffffffffffffff16815260200190815260200160002060010160009054906101000a900473ffffffffffffffffffffffffffffffffffffffff1673ffffffffffffffffffffffffffffffffffffffff161461356c576040517f08c379a000000000000000000000000000000000000000000000000000000000815260040161356390615b96565b60405180910390fd5b8173ffffffffffffffffffffffffffffffffffffffff163373ffffffffffffffffffffffffffffffffffffffff1614156135db576040517f08c379a00000000000000000000000000000000000000000000000000000000081526004016135d290615c28565b60405180910390fd5b600080600d54600160008673ffffffffffffffffffffffffffffffffffffffff1673ffffffffffffffffffffffffffffffffffffffff1681526020019081526020016000206002015411905060005b600560003373ffffffffffffffffffffffffffffffffffffffff1673ffffffffffffffffffffffffffffffffffffffff16815260200190815260200160002080549050811015613779578473ffffffffffffffffffffffffffffffffffffffff16600560003373ffffffffffffffffffffffffffffffffffffffff1673ffffffffffffffffffffffffffffffffffffffff16815260200190815260200160002082815481106136dc576136db6153bf565b5b9060005260206000200160009054906101000a900473ffffffffffffffffffffffffffffffffffffffff1673ffffffffffffffffffffffffffffffffffffffff161415613766577fb6d4c80e432e3b2f0a7bdebcf6040197f0bd0572e7bb324e126521fa5966657c336040516137529190615cba565b60405180910390a160009350505050613b9a565b8080613771906154bd565b91505061362a565b50600560003373ffffffffffffffffffffffffffffffffffffffff1673ffffffffffffffffffffffffffffffffffffffff168152602001908152602001600020849080600181540180825580915050600190039060005260206000200160009091909190916101000a81548173ffffffffffffffffffffffffffffffffffffffff021916908373ffffffffffffffffffffffffffffffffffffffff16021790555060005b6007805490508110156139d85760005b6005600060078481548110613845576138446153bf565b5b9060005260206000200160009054906101000a900473ffffffffffffffffffffffffffffffffffffffff1673ffffffffffffffffffffffffffffffffffffffff1673ffffffffffffffffffffffffffffffffffffffff168152602001908152602001600020805490508110156139c4578573ffffffffffffffffffffffffffffffffffffffff1660056000600785815481106138e4576138e36153bf565b5b9060005260206000200160009054906101000a900473ffffffffffffffffffffffffffffffffffffffff1673ffffffffffffffffffffffffffffffffffffffff1673ffffffffffffffffffffffffffffffffffffffff168152602001908152602001600020828154811061395b5761395a6153bf565b5b9060005260206000200160009054906101000a900473ffffffffffffffffffffffffffffffffffffffff1673ffffffffffffffffffffffffffffffffffffffff1614156139b15783806139ad906154bd565b9450505b80806139bc906154bd565b91505061382d565b5080806139d0906154bd565b91505061381d565b506007805490506064836139ec9190615ce8565b6139f691906155a7565b600160008673ffffffffffffffffffffffffffffffffffffffff1673ffffffffffffffffffffffffffffffffffffffff1681526020019081526020016000206002018190555060001515811515148015613a935750600d54600160008673ffffffffffffffffffffffffffffffffffffffff1673ffffffffffffffffffffffffffffffffffffffff16815260200190815260200160002060020154115b15613b935760005b600980549050811015613b91578473ffffffffffffffffffffffffffffffffffffffff166002600060098481548110613ad757613ad66153bf565b5b9060005260206000200154815260200190815260200160002060010160009054906101000a900473ffffffffffffffffffffffffffffffffffffffff1673ffffffffffffffffffffffffffffffffffffffff161415613b7e5760016002600060098481548110613b4a57613b496153bf565b5b9060005260206000200154815260200190815260200160002060030160006101000a81548160ff0219169083151502179055505b8080613b89906154bd565b915050613a9b565b505b6001925050505b919050565b60026020528060005260406000206000915090508060000154908060010160009054906101000a900473ffffffffffffffffffffffffffffffffffffffff16908060020154908060030160009054906101000a900460ff16905084565b600b8181548110613c0c57600080fd5b906000526020600020016000915090505481565b60603373ffffffffffffffffffffffffffffffffffffffff16600160003373ffffffffffffffffffffffffffffffffffffffff1673ffffffffffffffffffffffffffffffffffffffff16815260200190815260200160002060010160009054906101000a900473ffffffffffffffffffffffffffffffffffffffff1673ffffffffffffffffffffffffffffffffffffffff1614613cf2576040517f08c379a0000000000000000000000000000000000000000000000000000000008152600401613ce990615333565b60405180910390fd5b600060098054905067ffffffffffffffff811115613d1357613d126156b0565b5b604051908082528060200260200182016040528015613d415781602001602082028036833780820191505090505b5090506000805b600980549050811015613e57578473ffffffffffffffffffffffffffffffffffffffff166002600060098481548110613d8457613d836153bf565b5b9060005260206000200154815260200190815260200160002060010160009054906101000a900473ffffffffffffffffffffffffffffffffffffffff1673ffffffffffffffffffffffffffffffffffffffff161415613e44576002600060098381548110613df557613df46153bf565b5b9060005260206000200154815260200190815260200160002060000154838360ff1681518110613e2857613e276153bf565b5b602002602001018181525050600182613e419190615506565b91505b8080613e4f906154bd565b915050613d48565b508192505050919050565b60006020528060005260406000206000915090508060000154908060010154908060020154908060030160009054906101000a900460ff16908060030160019054906101000a900473ffffffffffffffffffffffffffffffffffffffff16905085565b600080600090505b600880549050811015613f1d578260088281548110613eef57613eee6153bf565b5b90600052602060002001541415613f0a576001915050613f23565b8080613f15906154bd565b915050613ecd565b50600090505b919050565b60005b60088054905081101561401a578160088281548110613f4d57613f4c6153bf565b5b90600052602060002001541415614007576000600182613f6d9190615771565b90505b600880549050811015613fdd5760088181548110613f9157613f906153bf565b5b90600052602060002001546008600183613fab91906157c7565b81548110613fbc57613fbb6153bf565b5b90600052602060002001819055508080613fd5906154bd565b915050613f70565b506008805480613ff057613fef6157fb565b5b600190038181906000526020600020016000905590555b8080614012906154bd565b915050613f2b565b5061402481614027565b50565b60005b60078054905081101561441f5760005b6004600060078481548110614052576140516153bf565b5b9060005260206000200160009054906101000a900473ffffffffffffffffffffffffffffffffffffffff1673ffffffffffffffffffffffffffffffffffffffff1673ffffffffffffffffffffffffffffffffffffffff1681526020019081526020016000208054905081101561440b578260046000600785815481106140db576140da6153bf565b5b9060005260206000200160009054906101000a900473ffffffffffffffffffffffffffffffffffffffff1673ffffffffffffffffffffffffffffffffffffffff1673ffffffffffffffffffffffffffffffffffffffff1681526020019081526020016000208281548110614152576141516153bf565b5b906000526020600020015414156143f85760006001826141729190615771565b90505b600460006007858154811061418d5761418c6153bf565b5b9060005260206000200160009054906101000a900473ffffffffffffffffffffffffffffffffffffffff1673ffffffffffffffffffffffffffffffffffffffff1673ffffffffffffffffffffffffffffffffffffffff16815260200190815260200160002080549050811015614353576004600060078581548110614215576142146153bf565b5b9060005260206000200160009054906101000a900473ffffffffffffffffffffffffffffffffffffffff1673ffffffffffffffffffffffffffffffffffffffff1673ffffffffffffffffffffffffffffffffffffffff168152602001908152602001600020818154811061428c5761428b6153bf565b5b906000526020600020015460046000600786815481106142af576142ae6153bf565b5b9060005260206000200160009054906101000a900473ffffffffffffffffffffffffffffffffffffffff1673ffffffffffffffffffffffffffffffffffffffff1673ffffffffffffffffffffffffffffffffffffffff16815260200190815260200160002060018361432191906157c7565b81548110614332576143316153bf565b5b9060005260206000200181905550808061434b906154bd565b915050614175565b50600460006007848154811061436c5761436b6153bf565b5b9060005260206000200160009054906101000a900473ffffffffffffffffffffffffffffffffffffffff1673ffffffffffffffffffffffffffffffffffffffff1673ffffffffffffffffffffffffffffffffffffffff1681526020019081526020016000208054806143e1576143e06157fb565b5b600190038181906000526020600020016000905590555b8080614403906154bd565b91505061403a565b508080614417906154bd565b91505061402a565b5050565b60005b60078054905081101561461b578173ffffffffffffffffffffffffffffffffffffffff166007828154811061445e5761445d6153bf565b5b9060005260206000200160009054906101000a900473ffffffffffffffffffffffffffffffffffffffff1673ffffffffffffffffffffffffffffffffffffffff16141561460857600781815481106144b9576144b86153bf565b5b9060005260206000200160006101000a81549073ffffffffffffffffffffffffffffffffffffffff021916905560006001826144f59190615771565b90505b6007805490508110156145bf5760078181548110614519576145186153bf565b5b9060005260206000200160009054906101000a900473ffffffffffffffffffffffffffffffffffffffff16600760018361455391906157c7565b81548110614564576145636153bf565b5b9060005260206000200160006101000a81548173ffffffffffffffffffffffffffffffffffffffff021916908373ffffffffffffffffffffffffffffffffffffffff16021790555080806145b7906154bd565b9150506144f8565b5060078054806145d2576145d16157fb565b5b6001900381819060005260206000200160006101000a81549073ffffffffffffffffffffffffffffffffffffffff021916905590555b8080614613906154bd565b915050614426565b5060005b600780549050811015614ad95760005b6005600060078481548110614647576146466153bf565b5b9060005260206000200160009054906101000a900473ffffffffffffffffffffffffffffffffffffffff1673ffffffffffffffffffffffffffffffffffffffff1673ffffffffffffffffffffffffffffffffffffffff16815260200190815260200160002080549050811015614ac5578273ffffffffffffffffffffffffffffffffffffffff1660056000600785815481106146e6576146e56153bf565b5b9060005260206000200160009054906101000a900473ffffffffffffffffffffffffffffffffffffffff1673ffffffffffffffffffffffffffffffffffffffff1673ffffffffffffffffffffffffffffffffffffffff168152602001908152602001600020828154811061475d5761475c6153bf565b5b9060005260206000200160009054906101000a900473ffffffffffffffffffffffffffffffffffffffff1673ffffffffffffffffffffffffffffffffffffffff161415614ab25760006001826147b39190615771565b90505b60056000600785815481106147ce576147cd6153bf565b5b9060005260206000200160009054906101000a900473ffffffffffffffffffffffffffffffffffffffff1673ffffffffffffffffffffffffffffffffffffffff1673ffffffffffffffffffffffffffffffffffffffff168152602001908152602001600020805490508110156149ee576005600060078581548110614856576148556153bf565b5b9060005260206000200160009054906101000a900473ffffffffffffffffffffffffffffffffffffffff1673ffffffffffffffffffffffffffffffffffffffff1673ffffffffffffffffffffffffffffffffffffffff16815260200190815260200160002081815481106148cd576148cc6153bf565b5b9060005260206000200160009054906101000a900473ffffffffffffffffffffffffffffffffffffffff1660056000600786815481106149105761490f6153bf565b5b9060005260206000200160009054906101000a900473ffffffffffffffffffffffffffffffffffffffff1673ffffffffffffffffffffffffffffffffffffffff1673ffffffffffffffffffffffffffffffffffffffff16815260200190815260200160002060018361498291906157c7565b81548110614993576149926153bf565b5b9060005260206000200160006101000a81548173ffffffffffffffffffffffffffffffffffffffff021916908373ffffffffffffffffffffffffffffffffffffffff16021790555080806149e6906154bd565b9150506147b6565b506005600060078481548110614a0757614a066153bf565b5b9060005260206000200160009054906101000a900473ffffffffffffffffffffffffffffffffffffffff1673ffffffffffffffffffffffffffffffffffffffff1673ffffffffffffffffffffffffffffffffffffffff168152602001908152602001600020805480614a7c57614a7b6157fb565b5b6001900381819060005260206000200160006101000a81549073ffffffffffffffffffffffffffffffffffffffff021916905590555b8080614abd906154bd565b91505061462f565b508080614ad1906154bd565b91505061461f565b5050565b5080546000825590600052602060002090810190614afb9190614b1f565b50565b5080546000825590600052602060002090810190614b1c9190614b3c565b50565b5b80821115614b38576000816000905550600101614b20565b5090565b5b80821115614b55576000816000905550600101614b3d565b5090565b600080fd5b6000819050919050565b614b7181614b5e565b8114614b7c57600080fd5b50565b600081359050614b8e81614b68565b92915050565b600073ffffffffffffffffffffffffffffffffffffffff82169050919050565b6000614bbf82614b94565b9050919050565b614bcf81614bb4565b8114614bda57600080fd5b50565b600081359050614bec81614bc6565b92915050565b600080600060608486031215614c0b57614c0a614b59565b5b6000614c1986828701614b7f565b9350506020614c2a86828701614bdd565b9250506040614c3b86828701614b7f565b9150509250925092565b60008115159050919050565b614c5a81614c45565b82525050565b6000602082019050614c756000830184614c51565b92915050565b600060208284031215614c9157614c90614b59565b5b6000614c9f84828501614b7f565b91505092915050565b600060ff82169050919050565b614cbe81614ca8565b82525050565b6000602082019050614cd96000830184614cb5565b92915050565b600060208284031215614cf557614cf4614b59565b5b6000614d0384828501614bdd565b91505092915050565b614d1581614b5e565b82525050565b614d2481614bb4565b82525050565b6000819050919050565b614d3d81614d2a565b82525050565b600060a082019050614d586000830188614d0c565b614d656020830187614d1b565b614d726040830186614d34565b614d7f6060830185614cb5565b614d8c6080830184614d0c565b9695505050505050565b600081519050919050565b600082825260208201905092915050565b6000819050602082019050919050565b614dcb81614b5e565b82525050565b6000614ddd8383614dc2565b60208301905092915050565b6000602082019050919050565b6000614e0182614d96565b614e0b8185614da1565b9350614e1683614db2565b8060005b83811015614e47578151614e2e8882614dd1565b9750614e3983614de9565b925050600181019050614e1a565b5085935050505092915050565b60006020820190508181036000830152614e6e8184614df6565b905092915050565b6000608082019050614e8b6000830187614d0c565b614e986020830186614d1b565b614ea56040830185614d0c565b614eb26060830184614c51565b95945050505050565b60008060408385031215614ed257614ed1614b59565b5b6000614ee085828601614b7f565b9250506020614ef185828601614b7f565b9150509250929050565b6000602082019050614f106000830184614d1b565b92915050565b614f1f81614d2a565b8114614f2a57600080fd5b50565b600081359050614f3c81614f16565b92915050565b600060208284031215614f5857614f57614b59565b5b6000614f6684828501614f2d565b91505092915050565b6000602082019050614f846000830184614d0c565b92915050565b600080600060608486031215614fa357614fa2614b59565b5b6000614fb186828701614b7f565b9350506020614fc286828701614b7f565b9250506040614fd386828701614b7f565b9150509250925092565b600081519050919050565b600082825260208201905092915050565b6000819050602082019050919050565b61501281614bb4565b82525050565b60006150248383615009565b60208301905092915050565b6000602082019050919050565b600061504882614fdd565b6150528185614fe8565b935061505d83614ff9565b8060005b8381101561508e5781516150758882615018565b975061508083615030565b925050600181019050615061565b5085935050505092915050565b600060208201905081810360008301526150b5818461503d565b905092915050565b600060c0820190506150d26000830189614d0c565b6150df6020830188614d0c565b6150ec6040830187614d34565b6150f96060830186614cb5565b6151066080830185614d1b565b61511360a0830184614c51565b979650505050505050565b60006020820190506151336000830184614d34565b92915050565b600060a08201905061514e6000830188614d0c565b61515b6020830187614d0c565b6151686040830186614d34565b6151756060830185614cb5565b6151826080830184614d1b565b9695505050505050565b600082825260208201905092915050565b7f4f6e6c792061646d696e20697320616c6c6f77656420746f206f70657261746560008201527f20746869732066756e6374696f6e616c69747900000000000000000000000000602082015250565b60006151f960338361518c565b91506152048261519d565b604082019050919050565b60006020820190508181036000830152615228816151ec565b9050919050565b7f42616e6b20776974682073616d65206164647265737320616c7265616479206560008201527f7869737473000000000000000000000000000000000000000000000000000000602082015250565b600061528b60258361518c565b91506152968261522f565b604082019050919050565b600060208201905081810360008301526152ba8161527e565b9050919050565b7f556e61757468656e7469636174656420726571756573746f72212042616e6b2060008201527f6e6f74206265656e2061646465642062792061646d696e2e0000000000000000602082015250565b600061531d60388361518c565b9150615328826152c1565b604082019050919050565b6000602082019050818103600083015261534c81615310565b9050919050565b7f5468697320637573746f6d657220646f65736e27742065786973747300000000600082015250565b6000615389601c8361518c565b915061539482615353565b602082019050919050565b600060208201905081810360008301526153b88161537c565b9050919050565b7f4e487b7100000000000000000000000000000000000000000000000000000000600052603260045260246000fd5b7f42616e6b20616c726561647920766f74656420666f722074686973206375737460008201527f6f6d657200000000000000000000000000000000000000000000000000000000602082015250565b600061544a60248361518c565b9150615455826153ee565b604082019050919050565b60006040820190506154756000830184614d1b565b81810360208301526154868161543d565b905092915050565b7f4e487b7100000000000000000000000000000000000000000000000000000000600052601160045260246000fd5b60006154c882614d2a565b91507fffffffffffffffffffffffffffffffffffffffffffffffffffffffffffffffff8214156154fb576154fa61548e565b5b600182019050919050565b600061551182614ca8565b915061551c83614ca8565b92508260ff038211156155325761553161548e565b5b828201905092915050565b600061554882614ca8565b915061555383614ca8565b92508160ff048311821515161561556d5761556c61548e565b5b828202905092915050565b7f4e487b7100000000000000000000000000000000000000000000000000000000600052601260045260246000fd5b60006155b282614d2a565b91506155bd83614d2a565b9250826155cd576155cc615578565b5b828204905092915050565b7f42616e6b20646f65736e27742065786973747300000000000000000000000000600082015250565b600061560e60138361518c565b9150615619826155d8565b602082019050919050565b6000602082019050818103600083015261563d81615601565b9050919050565b7f5468697320637573746f6d657220646f65736e27742065786974730000000000600082015250565b600061567a601b8361518c565b915061568582615644565b602082019050919050565b600060208201905081810360008301526156a98161566d565b9050919050565b7f4e487b7100000000000000000000000000000000000000000000000000000000600052604160045260246000fd5b7f5468697320637573746f6d65722773204b5943207265717565737420646f657360008201527f6e27742065786973747300000000000000000000000000000000000000000000602082015250565b600061573b602a8361518c565b9150615746826156df565b604082019050919050565b6000602082019050818103600083015261576a8161572e565b9050919050565b600061577c82614d2a565b915061578783614d2a565b9250827fffffffffffffffffffffffffffffffffffffffffffffffffffffffffffffffff038211156157bc576157bb61548e565b5b828201905092915050565b60006157d282614d2a565b91506157dd83614d2a565b9250828210156157f0576157ef61548e565b5b828203905092915050565b7f4e487b7100000000000000000000000000000000000000000000000000000000600052603160045260246000fd5b7f54686973207573657220616c7265616479206861732061204b5943207265717560008201527f65737420776974682073616d65206461746120696e2070726f636573732e0000602082015250565b6000615886603e8361518c565b91506158918261582a565b604082019050919050565b600060208201905081810360008301526158b581615879565b9050919050565b7f41757468656e7469636174696f6e206661696c65642100000000000000000000600082015250565b60006158f260168361518c565b91506158fd826158bc565b602082019050919050565b60006020820190508181036000830152615921816158e5565b9050919050565b7f5468697320637573746f6d6572206461746120697320757020746f2064617465600082015250565b600061595e60208361518c565b915061596982615928565b602082019050919050565b6000602082019050818103600083015261598d81615951565b9050919050565b7f5468697320637573746f6d657220697320616c72656164792070726573656e7460008201527f2c20706c656173652063616c6c206d6f64696679437573746f6d657220746f2060208201527f656469742074686520637573746f6d6572206461746100000000000000000000604082015250565b6000615a1660568361518c565b9150615a2182615994565b606082019050919050565b60006020820190508181036000830152615a4581615a09565b9050919050565b7f506c65617365207261697365204b59432072657175657374206265666f72652060008201527f616464696e6720637573746f6d65727300000000000000000000000000000000602082015250565b6000615aa860308361518c565b9150615ab382615a4c565b604082019050919050565b60006020820190508181036000830152615ad781615a9b565b9050919050565b7f4e6f7420616c6c6f77656420746f2061646420637573746f6d65727300000000600082015250565b6000615b14601c8361518c565b9150615b1f82615ade565b602082019050919050565b60006020820190508181036000830152615b4381615b07565b9050919050565b7f546869732062616e6b20646f65736e2774206578697374730000000000000000600082015250565b6000615b8060188361518c565b9150615b8b82615b4a565b602082019050919050565b60006020820190508181036000830152615baf81615b73565b9050919050565b7f42616e6b732063616e2774207570766f7465207468656972206f776e2062616e60008201527f6b00000000000000000000000000000000000000000000000000000000000000602082015250565b6000615c1260218361518c565b9150615c1d82615bb6565b604082019050919050565b60006020820190508181036000830152615c4181615c05565b9050919050565b7f42616e6b2068617320616c726561647920766f74656420666f7220746865206760008201527f6976656e2062616e6b0000000000000000000000000000000000000000000000602082015250565b6000615ca460298361518c565b9150615caf82615c48565b604082019050919050565b6000604082019050615ccf6000830184614d1b565b8181036020830152615ce081615c97565b905092915050565b6000615cf382614d2a565b9150615cfe83614d2a565b9250817fffffffffffffffffffffffffffffffffffffffffffffffffffffffffffffffff0483118215151615615d3757615d3661548e565b5b82820290509291505056fea26469706673582212203d968bd3897e883ffa214685f4d4781ee224ec31977c82e2821bb4e35531070864736f6c63430008090033",
  "immutableReferences": {},
  "source": "// SPDX-License-Identifier: MIT\npragma solidity ^0.8.9;\n\ncontract Kyc {\n    // Customer Struct. It defines a customer and validating bank's details\n    struct Customer {\n        bytes32 userName;\n        bytes32 dataHash;\n        uint256 rating;\n        uint8 upVotes;\n        address bank;\n    }\n\n    // Bank Struct. It defines the bank details\n    struct Bank {\n        bytes32 name;\n        address bank;\n        uint256 rating;\n        uint8 kycCount;\n        bytes32 regNumber;\n    }\n\n    // KycRequest struct. It defines kyc request details of customers\n    struct KycRequest {\n        bytes32 userName;\n        address bank;\n        bytes32 dataHash;\n        bool isAllowed;\n    }\n\n    // Mappings for custom data types of Customer, Bank and KycRequest\n    mapping(bytes32 => Customer) public customers;\n    mapping(address => Bank) public banks;\n    mapping(bytes32 => KycRequest) public kycRequests;\n    mapping(bytes32 => KycRequest) public customerKycReq;\n\n    // Mappings to maintain banks to banks and customer votes respectively\n    mapping(address => bytes32[]) internal bankToCustomerVotes;\n    mapping(address => address[]) internal bankToBankVotes;\n\n    // Mapping to maintain password list of customer to password\n    mapping(bytes32 => bytes32) internal passwordList;\n\n    // Arrays to maintain bank list, final customers list and customer requests dataHash list\n    address[] public bankList;\n    bytes32[] public finalCustomers;\n    bytes32[] internal customerReqDataList;\n    bytes32[] public customerReqList;\n    bytes32[] public customerVerificationList;\n\n    // State variables to define admin address and minimum acceptable rating for banks and customers\n    address admin;\n    uint256 minRating;\n\n    /*\n     * Set admin to one who deploy this contract\n     * Set minRating of 50%\n     */\n\n    constructor() {\n        admin = msg.sender;\n        minRating = (100 / 2);\n    }\n\n    // Modifiers\n\n    // Checks whether the requestor is admin\n    modifier isAdmin {\n        require(\n            admin == msg.sender,\n            \"Only admin is allowed to operate this functionality\"\n        );\n        _;\n    }\n\n    // Checks whether bank has been validated and added by admin\n    modifier isBankValid {\n        require(\n            banks[msg.sender].bank == msg.sender,\n            \"Unauthenticated requestor! Bank not been added by admin.\"\n        );\n        _;\n    }\n\n    // Authenticates the password\n    modifier validatePassword(bytes32 customerName, bytes32 password) {\n        require(\n            passwordList[customerName] != password,\n            \"Authentication failed!\"\n        );\n        _;\n    }\n\n    // Events\n    event alreadyVoted(address bankAddress, string message);\n\n    // ----- Bank Interface -----\n\n    /*\n     * Records new KYC request for customerName\n     * @param {bytes32} customerName The user name of the customer for whom the request is to be raised\n     * @param {bytes32} customerDataHash  The hash of the data or identification documents provided by the Customer\n     * modifier isBankValid Checks whether bank has been validated and added by admin\n     * @returns {uint8} Returns 1 if the execution is successful, 0 otherwise\n     */\n    function addKycRequest(bytes32 customerName, bytes32 customerDataHash)\n        public\n        isBankValid\n        returns (uint8)\n    {\n        require(\n            kycRequests[customerDataHash].bank == address(0),\n            \"This user already has a KYC request with same data in process.\"\n        );\n\n        kycRequests[customerDataHash].userName = customerName;\n        kycRequests[customerDataHash].dataHash = customerDataHash;\n        kycRequests[customerDataHash].bank = msg.sender;\n\n        // Initialize isAllowed flag for request based on bank's minimum rating\n        if (banks[msg.sender].rating <= minRating)\n            kycRequests[customerDataHash].isAllowed = false;\n        else kycRequests[customerDataHash].isAllowed = true;\n\n        // Push customer request data to customerReqDataList array\n        customerReqDataList.push(customerDataHash);\n        customerReqList.push(customerName);\n\n        banks[msg.sender].kycCount += 1;\n\n        customerKycReq[customerName].userName = customerName;\n        customerKycReq[customerName].dataHash = customerDataHash;\n        customerKycReq[customerName].bank = msg.sender;\n\n        return 1;\n    }\n\n    /*\n     * Adds customer to customers mapping\n     * Add the requestor's bank's vote and update the customer rating\n     * @param {bytes32} customerName The user name of the customer for whom the request is made\n     * @param {bytes32} customerDataHash  The hash of the data or identification documents provided by the Customer\n     * modifier isBankValid Checks whether bank has been validated and added by admin\n     * @returns {uint8} Returns 1 if the execution is successful, 0 otherwise\n     */\n    function addCustomer(bytes32 customerName, bytes32 customerDataHash)\n        public\n        isBankValid\n        returns (uint8)\n    {\n        require(\n            customers[customerName].bank == address(0),\n            \"This customer is already present, please call modifyCustomer to edit the customer data\"\n        );\n        require(\n            kycRequests[customerDataHash].userName == customerName,\n            \"Please raise KYC request before adding customers\"\n        );\n        require(\n            kycRequests[customerDataHash].isAllowed == true,\n            \"Not allowed to add customers\"\n        );\n\n        customers[customerName].userName = customerName;\n        customers[customerName].dataHash = customerDataHash;\n        customers[customerName].bank = msg.sender;\n\n        // Record bank's vote and update the vote and rating for the customer\n        bankToCustomerVotes[msg.sender].push(customerName);\n        customers[customerName].upVotes += 1;\n        customers[customerName].rating =\n            (customers[customerName].upVotes * 100) /\n            bankList.length;\n\n        customerVerificationList.push(customerName);\n\n        // Remove KYC request once the customer is added to the lsit\n        removeKycRequest(customerName, customerDataHash);\n\n        // Initialize the customer password to '0'. Once customer needs data to be protected, bank can set the password for those customers.\n        passwordList[customerName] = \"0\";\n\n        return 1;\n    }\n\n    /*\n     * Remove KYC request for the customer data\n     * @param {bytes32} customerName The user name of the customer for whom the request is made\n     * @param {bytes32} customerDataHash  The hash of the data or identification documents provided by the Customer\n     * @returns {uint8} Returns 1 if the execution is successful, 0 otherwise\n     */\n    function removeKycRequest(bytes32 customerName, bytes32 customerDataHash)\n        public\n        isBankValid\n        returns (uint8)\n    {\n        require(\n            kycRequests[customerDataHash].userName == customerName,\n            \"This customer's KYC request doesn't exists\"\n        );\n\n        delete kycRequests[customerDataHash];\n\n        // Remove KYC request from the list\n        // removeKycRequest(customerName, customerDataHash);\n        for (uint256 i = 0; i < customerReqDataList.length; i++) {\n            if (customerReqDataList[i] == customerDataHash) {\n                for (uint256 j = i + 1; j < customerReqDataList.length; j++) {\n                    customerReqDataList[j - 1] = customerReqDataList[j];\n                }\n                customerReqDataList.pop();\n                return 1;\n            }\n        }\n\n        return 1;\n    }\n\n    /*\n     * Remove customer mapping\n     * Remove customer from final customer list\n     * Remove customer's vote given by the banks\n     * Remove customer's password\n     * @param {bytes32} customerName The user name of the customer for whom the request is made\n     * @param {bytes32} customerDataHash  The hash of the data or identification documents provided by the Customer\n     * modifier isBankValid Checks whether bank has been validated and added by admin\n     * @returns {uint8} Returns 1 if the execution is successful, 0 otherwise\n     */\n    function removeCustomer(bytes32 customerName)\n        external\n        isBankValid\n        returns (uint8)\n    {\n        require(\n            customers[customerName].userName == customerName,\n            \"This customer doesn't exits\"\n        );\n\n        delete customers[customerName];\n        delete passwordList[customerName];\n\n        // if customer is present in final customer list then remove customer from the final list and remove the votes given to the customer by the banks\n        if (isCustomerPresent(customerName))\n            removeAcceptedCustomer(customerName);\n\n        return 1;\n    }\n\n    /*\n     * View customer dataHash\n     * @param {bytes32} customerName The user name of the customer for whom the request is made\n     * @param {bytes32} password Password for the customer\n     * modifier isBankValid Checks whether bank has been validated and added by admin\n     * @modifier validatePassword Validate if the password is set for customer then its valid\n     * @returns {bytes32} The hash of the data or identification documents of the customer\n     */\n    function viewCustomer(bytes32 customerName, bytes32 password)\n        public\n        view\n        isBankValid\n        validatePassword(customerName, password)\n        returns (bytes32)\n    {\n        return customers[customerName].dataHash;\n    }\n\n    function viewCustomerDetails(bytes32 customerName)\n        public\n        view\n        isBankValid\n        returns (\n            bytes32,\n            address,\n            bytes32,\n            bool\n        )\n    {\n        bytes32 customerDataHash = customerKycReq[customerName].dataHash;\n        return (\n            kycRequests[customerDataHash].userName,\n            kycRequests[customerDataHash].bank,\n            kycRequests[customerDataHash].dataHash,\n            kycRequests[customerDataHash].isAllowed\n        );\n    }\n\n    function viewPedingCustomerDetails(bytes32 customerName)\n        public\n        view\n        isBankValid\n        returns (\n            bytes32,\n            bytes32,\n            uint256,\n            uint8,\n            address,\n            bool\n        )\n    {\n        if (customers[customerName].rating > minRating) {\n            return (\n                customers[customerName].userName,\n                customers[customerName].dataHash,\n                customers[customerName].rating,\n                customers[customerName].upVotes,\n                customers[customerName].bank,\n                true\n            );\n        } else {\n            return (\n                customers[customerName].userName,\n                customers[customerName].dataHash,\n                customers[customerName].rating,\n                customers[customerName].upVotes,\n                customers[customerName].bank,\n                false\n            );\n        }\n    }\n\n    // Get all the bank's customers who have raised the kyc requests\n    function getRequestedCustomers(address bankAddress)\n        public\n        view\n        isBankValid\n        returns (bytes32[] memory)\n    {\n        bytes32[] memory customerList = new bytes32[](\n            customerReqDataList.length\n        );\n        uint8 count = 0;\n\n        // Get all the dataHash of the customer for which bank has raised a request\n        for (uint256 i = 0; i < customerReqDataList.length; i++) {\n            if (kycRequests[customerReqDataList[i]].bank == bankAddress) {\n                customerList[count] = kycRequests[customerReqDataList[i]]\n                    .userName;\n                count = count + 1;\n            }\n        }\n        return customerList;\n    }\n\n    // get all the verification requests of customer raised by a bank\n    function getPendingCustomers()\n        public\n        view\n        isBankValid\n        returns (bytes32[] memory)\n    {\n        bytes32[] memory customerList = new bytes32[](\n            customerVerificationList.length\n        );\n        uint8 count = 0;\n\n        // Get all the dataHash of the customer for which bank has raised a request\n        for (uint256 i = 0; i < customerVerificationList.length; i++) {\n            // if (customers[customerVerificationList[i]].bank == bankAddress) {\n            customerList[count] = customers[customerVerificationList[i]]\n                .userName;\n            count = count + 1;\n            // }\n        }\n        return customerList;\n    }\n\n    function getVerifiedCustomers() public view returns (bytes32[] memory) {\n        return finalCustomers;\n    }\n\n    function getAllBanks() public view returns (address[] memory) {\n        return bankList;\n    }\n\n    /*\n     * Allows a bank to cast an upvote for a customer\n     * @param {bytes32} customerName The user name of the customer for whom the request is made\n     * modifier isBankValid Checks whether bank has been validated and added by admin\n     * @returns {uint8} Returns 1 if the execution is successful, 0 otherwise\n     */\n    function upVoteCustomer(bytes32 customerName)\n        public\n        isBankValid\n        returns (uint8)\n    {\n        require(\n            customers[customerName].userName == customerName,\n            \"This customer doesn't exists\"\n        );\n        require(\n            banks[msg.sender].bank == msg.sender,\n            \"Unauthenticated requestor! Bank not been added by admin.\"\n        );\n\n        // Check if bank has already voted for a customer\n        for (uint256 i = 0; i < bankToCustomerVotes[msg.sender].length; i++) {\n            if (bankToCustomerVotes[msg.sender][i] == customerName) {\n                emit alreadyVoted(\n                    msg.sender,\n                    \"Bank already voted for this customer\"\n                );\n                return 0;\n            }\n        }\n\n        // Add vote to the customer\n        bankToCustomerVotes[msg.sender].push(customerName);\n\n        // Evaluate customer's vote and rating based on current bank's vote\n        customers[customerName].upVotes += 1;\n        customers[customerName].rating =\n            (customers[customerName].upVotes * 100) /\n            bankList.length;\n\n        // If customer satisfies minimum rating criteria, add the customer to final customer list\n        if (customers[customerName].rating > minRating) {\n            finalCustomers.push(customerName);\n        }\n\n        return 1;\n    }\n\n    /*\n     * Modify customer details\n     * @param {bytes32} customerName The user name of the customer for whom the request is made\n     * @param {bytes32} password Password for the customer\n     * @param {bytes32} customerDataHash  The hash of the data to be updated\n     * modifier isBankValid Checks whether bank has been validated and added by admin\n     * @modifier validatePassword Validate if the password is set for customer then its valid to update the customer details\n     * @returns {uint8} Returns 1 if the execution is successful, 0 otherwise\n     */\n    function modifyCustomerData(\n        bytes32 customerName,\n        bytes32 password,\n        bytes32 dataHash\n    )\n        public\n        isBankValid\n        validatePassword(customerName, password)\n        returns (uint8)\n    {\n        require(\n            customers[customerName].userName == customerName,\n            \"This customer doesn't exits\"\n        );\n\n        // Validate whether same data is present for customer\n        bytes32 savedDataHash = viewCustomer(customerName, password);\n        require(\n            customers[customerName].dataHash != savedDataHash,\n            \"This customer data is up to date\"\n        );\n\n        // Update the customer dataHash and requestor bank\n        customers[customerName].dataHash = dataHash;\n        customers[customerName].bank = msg.sender;\n\n        // Initialize new data's rating and upvote by banks to 0\n        customers[customerName].rating = 0;\n        customers[customerName].upVotes = 0;\n\n        // If customer is present in final customer list then remove it.\n        if (isCustomerPresent(customerName))\n            removeAcceptedCustomer(customerName);\n\n        // Remove all the votes customer got from the bank\n        removeCustomerVotes(customerName);\n\n        return 1;\n    }\n\n    /*\n     * Fetch all the requests raised by the bank\n     * @param {address} bankAddress Bank address\n     * modifier isBankValid Checks whether bank has been validated and added by admin\n     * @returns {bytes32[]} Returns all the data hash of customer for which bank has raised a request\n     */\n    function getBankRequests(address bankAddress)\n        public\n        view\n        isBankValid\n        returns (bytes32[] memory)\n    {\n        bytes32[] memory dataList = new bytes32[](customerReqDataList.length);\n        uint8 count = 0;\n\n        // Get all the dataHash of the customer for which bank has raised a request\n        for (uint256 i = 0; i < customerReqDataList.length; i++) {\n            if (kycRequests[customerReqDataList[i]].bank == bankAddress) {\n                dataList[count] = customerReqDataList[i];\n                count = count + 1;\n            }\n        }\n        return dataList;\n    }\n\n    /*\n     * Upvote a bank\n     * @param {address} bankAddress Bank address to be upvoted\n     * modifier isBankValid Checks whether bank has been validated and added by admin\n     * @returns {uint8} Returns 1 if the execution is successful, 0 otherwise\n     */\n    function upVoteBank(address bankAddress)\n        public\n        isBankValid\n        returns (uint8)\n    {\n        require(\n            banks[bankAddress].bank == bankAddress,\n            \"This bank doesn't exists\"\n        );\n        require(msg.sender != bankAddress, \"Banks can't upvote their own bank\");\n\n        uint256 votesCount = 0;\n        bool isTrustedBank = banks[bankAddress].rating > minRating;\n\n        // Check whether bank as already voted for given bank\n        for (uint256 i = 0; i < bankToBankVotes[msg.sender].length; i++) {\n            if (bankToBankVotes[msg.sender][i] == bankAddress) {\n                emit alreadyVoted(\n                    msg.sender,\n                    \"Bank has already voted for the given bank\"\n                );\n                return 0;\n            }\n        }\n\n        bankToBankVotes[msg.sender].push(bankAddress);\n\n        // calculate upvotes for the bank from bankToBankVotes mapping\n        for (uint256 i = 0; i < bankList.length; i++) {\n            for (uint256 j = 0; j < bankToBankVotes[bankList[i]].length; j++) {\n                if (bankToBankVotes[bankList[i]][j] == bankAddress)\n                    votesCount++;\n            }\n        }\n\n        banks[bankAddress].rating = (votesCount * 100) / bankList.length;\n\n        // Allow all the requests made by the bank if bank satisfy min criteria. Will run only once for a bank when it just cross min criteria\n        if (isTrustedBank == false && banks[bankAddress].rating > minRating) {\n            for (uint256 i = 0; i < customerReqDataList.length; i++) {\n                if (kycRequests[customerReqDataList[i]].bank == bankAddress) {\n                    kycRequests[customerReqDataList[i]].isAllowed = true;\n                }\n            }\n        }\n\n        return 1;\n    }\n\n    /*\n     * Get customer rating\n     * @param {bytes32} customerName The user name of the customer for whom the request is made\n     * modifier isBankValid Checks whether bank has been validated and added by admin\n     * @returns {uint256} Returns the rating for the customer\n     */\n    function getCustomerRating(bytes32 customerName)\n        public\n        view\n        isBankValid\n        returns (uint256)\n    {\n        return customers[customerName].rating;\n    }\n\n    /*\n     * Get bank rating\n     * @param {address} The address of bank for which the request is made\n     * modifier isBankValid Checks whether bank has been validated and added by admin\n     * @returns {uint256} Returns the rating for the bank\n     */\n    function getBankRating(address bankAddress)\n        public\n        view\n        isBankValid\n        returns (uint256)\n    {\n        return banks[bankAddress].rating;\n    }\n\n    /*\n     * Get bank who has lately updated the customer details\n     * @param {bytes32} customerName The user name of the customer for whom the request is made\n     * modifier isBankValid Checks whether bank has been validated and added by admin\n     * @returns {address} Returns the bank address\n     */\n    function lastUpdatedBy(bytes32 customerName)\n        public\n        view\n        isBankValid\n        returns (address)\n    {\n        return customers[customerName].bank;\n    }\n\n    /*\n     * Set password for the customer data\n     * @param {bytes32} customerName The user name of the customer for whom the request is made\n     * @param {bytes32 password The password that need to be set for the customer data\n     * modifier isBankValid Checks whether bank has been validated and added by admin\n     * @returns {bool} Returns true if success, false otherwise\n     */\n    function setPassword(bytes32 customerName, bytes32 password)\n        public\n        isBankValid\n        returns (bool)\n    {\n        passwordList[customerName] = password;\n        return true;\n    }\n\n    /*\n     * Get bank details\n     * @param {address} The address of bank for which the request is made\n     * modifier isBankValid Checks whether bank has been validated and added by admin\n     * @returns {bytes32, address, uint256, uint8, bytes32} Returns bank details\n     */\n    function getBankDetails(address bankAddress)\n        public\n        view\n        returns (\n            bytes32,\n            address,\n            uint256,\n            uint8,\n            bytes32\n        )\n    {\n        require(banks[bankAddress].bank == bankAddress, \"Bank doesn't exists\");\n\n        return (\n            banks[bankAddress].name,\n            banks[bankAddress].bank,\n            banks[bankAddress].rating,\n            banks[bankAddress].kycCount,\n            banks[bankAddress].regNumber\n        );\n    }\n\n    // ----- Admin Interface -----\n\n    /*\n     * Add new bank\n     * @param {bytes32} bankName The name of the bank\n     * @param {address} bankAddress The address of the bankAddress\n     * @param {bytes32} regNumber THe unique registration number of the bank\n     * modifier isAdmin validate if only admin is able to make a request\n     * @returns {bool} Returns true if success, false otherwise\n     */\n    function addBank(\n        bytes32 bankName,\n        address bankAddress,\n        bytes32 regNumber\n    ) public isAdmin returns (bool) {\n        require(\n            banks[bankAddress].bank != bankAddress,\n            \"Bank with same address already exists\"\n        );\n\n        banks[bankAddress].name = bankName;\n        banks[bankAddress].bank = bankAddress;\n        banks[bankAddress].rating = 0;\n        banks[bankAddress].kycCount = 0;\n        banks[bankAddress].regNumber = regNumber;\n\n        bankList.push(bankAddress);\n\n        bankToBankVotes[bankAddress].push();\n        bankToCustomerVotes[bankAddress].push();\n\n        return true;\n    }\n\n    /*\n     * Remove a bank from the list\n     * @param {address} bankAddress The address of the bankAddress\n     * modifier isAdmin validate if only admin is able to make a request\n     * @returns {bool} Returns true if success, false otherwise\n     */\n    function removeBank(address bankAddress) public isAdmin returns (bool) {\n        require(banks[bankAddress].bank == bankAddress, \"Bank doesn't exists\");\n\n        removeBankFromList(bankAddress);\n\n        delete banks[bankAddress];\n        delete bankToBankVotes[bankAddress];\n        delete bankToCustomerVotes[bankAddress];\n\n        return true;\n    }\n\n    // ----- Helper functions -----\n\n    // Function to validate if the customer is present in final customer list\n    function isCustomerPresent(bytes32 customerName)\n        internal\n        view\n        returns (bool)\n    {\n        for (uint256 i = 0; i < finalCustomers.length; i++) {\n            if (finalCustomers[i] == customerName) return true;\n        }\n        return false;\n    }\n\n    // Function to remove the customer from final list and associated votes from bank\n    function removeAcceptedCustomer(bytes32 customerName) internal {\n        for (uint256 index = 0; index < finalCustomers.length; index++) {\n            if (finalCustomers[index] == customerName) {\n                for (uint256 j = index + 1; j < finalCustomers.length; j++) {\n                    finalCustomers[j - 1] = finalCustomers[j];\n                }\n                finalCustomers.pop();\n            }\n        }\n        removeCustomerVotes(customerName);\n    }\n\n    // Function to remove customer votes from all the bank\n    function removeCustomerVotes(bytes32 customerName) internal {\n        for (uint256 i = 0; i < bankList.length; i++) {\n            for (\n                uint256 j = 0;\n                j < bankToCustomerVotes[bankList[i]].length;\n                j++\n            ) {\n                if (bankToCustomerVotes[bankList[i]][j] == customerName) {\n                    for (\n                        uint256 k = j + 1;\n                        k < bankToCustomerVotes[bankList[i]].length;\n                        k++\n                    ) {\n                        bankToCustomerVotes[bankList[i]][k -\n                            1] = bankToCustomerVotes[bankList[i]][k];\n                    }\n                    bankToCustomerVotes[bankList[i]].pop();\n                }\n            }\n        }\n    }\n\n    // Function to remove bank from the list\n    function removeBankFromList(address bankAddress) internal {\n        for (uint256 i = 0; i < bankList.length; i++) {\n            if (bankList[i] == bankAddress) {\n                delete bankList[i];\n                for (uint256 j = i + 1; j < bankList.length; j++) {\n                    bankList[j - 1] = bankList[j];\n                }\n                bankList.pop();\n            }\n        }\n\n        // remove bank votes from all the banks\n        for (uint256 i = 0; i < bankList.length; i++) {\n            for (uint256 j = 0; j < bankToBankVotes[bankList[i]].length; j++) {\n                if (bankToBankVotes[bankList[i]][j] == bankAddress) {\n                    for (\n                        uint256 k = j + 1;\n                        k < bankToBankVotes[bankList[i]].length;\n                        k++\n                    ) {\n                        bankToBankVotes[bankList[i]][k -\n                            1] = bankToBankVotes[bankList[i]][k];\n                    }\n                    bankToBankVotes[bankList[i]].pop();\n                }\n            }\n        }\n    }\n}\n",
  "sourcePath": "C:\\Users\\saich\\OneDrive\\Desktop\\Blockchain\\1.decentralized-kyc-master\\decentralized-kyc-master\\contracts\\Kyc.sol",
  "compiler": {
    "name": "solc",
    "version": "0.8.9+commit.e5eed63a.Emscripten.clang"
  },
  "schemaVersion": "3.4.3",
  "updatedAt": "2021-10-31T06:00:49.944Z",
  "devdoc": {
    "kind": "dev",
    "methods": {},
    "version": 1
  },
  "userdoc": {
    "kind": "user",
    "methods": {},
    "version": 1
  }
}